:060000000A128A11FC2F18
:100F1E00F201831203130715C730F000962FF00B62
:100F2E00952F992F9A2F8312031307113330F10047
:100F3E00A530F000F00BA12FF10BA12F0130F2071D
:100F4E0032307202031CAC2FAD2F902F0800F2012D
:100F5E008312031307150730F1007D30F000F00BFC
:100F6E00B62FF10BB62F8312031307112E30F1009B
:100F7E007330F000F00BC12FF10BC12F0130F207CF
:100F8E0032307202031CCC2FCD2FAF2F08008316E8
:100F9E00031307118312031307110A128A118F27E5
:100FAE000A128A110B30F5002630F4005D30F30082
:100FBE00F30BDF2FF40BDF2FF50BDF2FE62F0A12CB
:100FCE008A11AE270A128A110B30F5002630F40072
:100FDE005D30F300F30BF12FF40BF12FF50BF12F26
:100FEE00F82FD42F0A128A11002883010A128A11AF
:020FFE00CE2FF4
:04400E00F22FFF3F4F
:00000001FF
