:060000000A128A110C280F
:10000800FE00030EF8000A08F9000A128A11ED2909
:100018000A128A110F280A128A1180220A128A11DA
:10002800C3000A128A1181220A128A11C400FA0135
:1000380083010A128A112028DC3083120313C100BD
:100048000530C20083160313071183120313071127
:100058000A128A115E220A128A110A128A1137229A
:100068000A128A110A128A114C210A128A11831261
:1000780003132408BE002308BD000030B000003080
:10008800AF000330AE00FF30AD003D08A0003E08D1
:10009800A100A201A3010030A7000030A60007308C
:1000A800A500D030A4000A128A11A5210A128A11CB
:1000B800831203132308B4002208B3002108B200F6
:1000C8002008B1000A128A11E6200A128A11831246
:1000D80003132D08F43EBF002E080318013E013E0D
:1000E800C00040084202031D7B283F084102031854
:1000F8007E287F28A42841083F02BB004208031C31
:10010800420A4002BC000310BC0CBB0C0310BC0C20
:10011800BB0C3B08C1070318C20A3C08C2074008C9
:100128004202031D99283F08410203189C289D2874
:10013800D2280130C1070318C20A0030C207D228EA
:1001480042084002031DAA2841083F020318AD28AF
:10015800AE28D2283F084102BB004008031C400AD1
:100168004202BC000310BC0CBB0C0310BC0CBB0C43
:100178003B08C1023C08031CC203C20242084002F9
:10018800031DC82841083F020318CB28CC28D228D1
:100198000130C1020030031CC203C2028B134208A3
:1001A800C4004108C3008B170D3083120313BC0031
:1001B800FB30BB00BB0BDE28BC0BDE2836280A123E
:1001C8008A110C28003083120313B9000030B800DC
:1001D8000030B7000030B60030082F042E042D047C
:1001E8000319F728F82843290130BA0006290130F5
:1001F800B5000310AD0DAE0DAF0DB00DB50BFD285C
:100208000130BA07B01F09290A29FB280130B500B7
:100218000310B60DB70DB80DB90DB50B0C29300884
:100228003402031D21292F083302031D21292E081A
:100238003202031D21292D083102031C24292529F6
:1002480034292D08B1022E08031C2E0FB2022F08E4
:10025800031C2F0FB3023008031C300FB4023614EE
:1002680001300310B00CAF0CAE0CAD0CFF3E031DFB
:1002780035290130BA02031D422943290A293908C0
:10028800B0003808AF003708AE003608AD000800E7
:10029800003083120313AC000030AB000030AA001A
:1002A8000030A900AD010A128A1120220A128A110F
:1002B800831203132008A5002108A600A701A8019E
:1002C8002508A907260803110318013E03196D29FB
:1002D800AA07270803110318013E03197429AB075D
:1002E800280803110318013E03197B29AC070330C2
:1002F80083120313A6009730A500A50B8129A60B2E
:100308008129013083120313AD0708302D02031C25
:100318008E298F2957292908A5002A08A6002B0805
:10032800A7002C08A80003300310A80CA70CA60CE3
:10033800A50CFF3E031D98292608A4002508A30044
:100348000800003083120313AC000030AB0000300B
:10035800AA000030A900201CB229B329CA29240800
:10036800A907250803110318013E0319BC29AA0788
:10037800260803110318013E0319C329AB072708F0
:1003880003110318013E0319CA29AC070130A8005C
:100398000310A40DA50DA60DA70DA80BCC2901309F
:1003A8000310A30CA20CA10CA00CFF3E031DD42922
:1003B8002308220421042004031DE329E429AF298A
:1003C8002C08A3002B08A2002A08A1002908A000D5
:1003D8000800831203130C1CF229F329192A0C10A4
:1003E8007A08031DF829F929062A07150130FA00A9
:1003F8004408F1004308F0000A128A116F220A1219
:100408008A11192A0711FA012030F6004E30F70038
:1004180043087602F0004408031C440A7702F100FE
:100428000A128A116F220A128A1179088A00780E34
:100438008300FE0E7E0E09000C3083120313A20007
:10044800A20B242A0000831203139F149F182D2A3D
:100458002E2A2A2A1E08A100831603131E088312B7
:100468000313A000080011308312031390000C102E
:10047800831603130C140B178B17203083120313E6
:10048800A0004E30A1000A128A114D220A128A11C8
:10049800080083120313A201A30120082202A4006A
:1004A8002108031C210A2302A50025088F0024081F
:1004B8008E0008000130831603178800890183160F
:1004C800031305148130831203139F0080308316B1
:1004D80003139F000800F201F30170087202F40090
:1004E8007108031C710A7302F5007508831203135F
:0C04F8008F0074088E000800DC3405340E
:04400E00F22FFF3F4F
:00000001FF
